:10000000F80B0020690600000D07000011420000F7
:100010003142000051420000914200007142000054
:10002000000000000000000000000000211300009C
:100030000D070000000000000D0700000D07000084
:100040000D0700000D07000000000000DF1D00008C
:10005000000000000D07000000000000000000008C
:100060000D0700000D0700000D0700000D07000040
:100070000D0700000D0700000D0700000D07000030
:100080000D0700000D070000000000000000000048
:100090000D0700000D070000000000000000000038
:1000A0000D0700000D0700000D0700000D07000000
:1000B0000D0700000D0700000D0700000D070000F0
:1000C0000D0700000D0700000D0700000D070000E0
:1000D0000D070000000000000D07000000000000F8
:1000E0000D070000000000000D0700000D070000D4
:1000F000000000000D070000000000000D070000D8
:100100000000000000000000000000000D070000DB
:100110000D070000000000000D0700000D070000A3
:10012000000000000D0700000000000000000000BB
:1001300000000000000000000000000000000000BF
:1001400000000000000000000000000000000000AF
:100150000D07000000015F5F00000000FE0B0000C3
:10016000B113000080060000000000000000000045
:10017000000000000000000000000000001200204D
:100180000000000001015F5F030100001F0100008B
:1001900099040000000000000000000001000000C1
:1001A000010000000000000000000000000000004E
:1001B00000000000700000006046000080000000A9
:1001C000000F000001000000E502000001015F5F78
:1001D000040100001F0100000106000000000000F3
:1001E000000000000000000001000000000000000E
:1001F0000000000000000000000000006B4600004E
:10020000400000000507000001000000ED040000B0
:1002200038B50025054C29462046D4F80024C4F8EA
:10023000045404F060F8C4F8005438BD200C0020C9
:1002400013B511460022CDE9002242680346302A48
:1002500004683ED194F82C20022A18D01AB900F074
:1002600041F902B010BD1E482468D0F80404013AD8
:10027000CDE90040072A2FD8DFE802F004090D126B
:10028000171C21266A46184600F029F9E9E71846A6
:1002900000F013F9E5E76A46184600F011F9E0E7C7
:1002A0006A46184600F006F9DBE76A46184600F091
:1002B0000AF9D6E76A46184600F008F9D1E76A4617
:1002C000184600F006F9CCE76A46184600F004F933
:1002D000C7E76FF08000C4E76FF08500C1E700BF9B
:1002E000200C00202DE9F04F056804469FB0002D3A
:1002F00040F0AA802022294602A803F0FCFF12AF9A
:10030000202229460AA803F0F6FF30222946384663
:1003100003F0F1FFE26904F11C039846B2B1042630
:10032000E26A04F12C03EAB10425EEB96FF083060A
:1003300030461FB0BDE8F08F002EF1D053F8041DF9
:100340003246013E0029F7D01646E9E70326F5E7D5
:10035000002DEAD053F8041D2A46013D0029F7D0AC
:100360001546E2E70325F5E730233A4600216068A9
:1003700003F0FEFF3028D9D14FF00109CDE902701A
:10038000334F0DF1080A04F1100B4E45D7F8001455
:100390001CD10DF128094B46002008EB850EC645FF
:1003A00033D108B1C7F80014A3683146C7F8043444
:1003B0000AAA2B4602A8FFF743FF00270646BD42C4
:1003C00009F1080938D1FFF72BFFB1E75BF8043FCB
:1003D000C1F58062D81C20F00300904204D9FFF7D9
:1003E0001FFF6FF08C06A3E70844CA19C7F8000482
:1003F00049466068019203F0BBFF019ACAF80C00FD
:1004000009F101094AF8082FBFE758F804CFC1F5F0
:10041000806A0CF1030222F00302524503F1080343
:1004200005D8781843E9020C11440120B7E70028E9
:10043000D5D0C7F80014D2E7394659E902236068DD
:1004400003F0ABFF0137BAE76FF0850670E700BF36
:10045000200C002008B528220021024803F04BFFA1
:10046000002008BD2810002010B5044C0F222046A3
:10047000034903F01BFF204610BD00BF51100020B0
:100480000406000008B50121024801F077FF0020B2
:1004900008BD00BF5010002008B5FFF7DBFF40B9D2
:1004A000FFF7E2FFFFF7EEFF18B9BDE8084001F0E3
:1004B000D3BF08BD6FF0850070476FF085007047AF
:1004C0006FF0850070476FF0850070476FF0850012
:1004D00070476FF0850070476FF0850070476FF0D0
:1004E00085007047D1E9000101F096BFF0B50368BF
:1004F0000546B3F57D7FA7B007D040F2F5329342B1
:1005000007D06FF0850027B0F0BD00F0C5FB0020DC
:10051000F9E700243C22214607A8CDE90244CDE9B1
:100520000444069403F0E7FE3C22214617A81694E3
:1005300003F0E1FEEA69019405F11C0302B304260D
:10054000EA6A05F12C033AB30424731E012B52D836
:10055000012C50D80423002168680DEB030203F03E
:1005600007FF04281AD06FF08000CCE7002EE7D0F8
:1005700053F8041D3246013E0029F7D01646DFE746
:100580000326F5E7002CE0D053F8041D2246013C79
:100590000029F7D01446D8E70324F5E7022E16D138
:1005A0006E69402E29D806AF33463A460121686865
:1005B00003F0DEFE8642D6D1CDE9027602A944B927
:1005C0002246019800F05FFC044620469BE700218C
:1005D000F5E72B6A402BC6D816AACDE9042301986B
:1005E00004AA00F050FCDDE90423044600216868F9
:1005F00003F0D3FEE9E7012085E76FF0890082E789
:10060000002070474D62656420544C5320332E35D2
:100610002E3200000000000000000000000000007A
:10062000341A000001000000407C0000801000200F
:100630003D000000407C0000200C00200000000075
:10064000407C0000000C002000000000741100201D
:10065000AA050000200C002018010000000C00205A
:100660000800000001F008BA08B572B61E4A1F4B18
:100670009A601F4B83F309881E4B83F30A8883F328
:100680000B881D4B16A1D1E90001C3E9000100F060
:100690005DF81A4B1A498B4212D30020194B1A49A4
:1006A0008B4218D301F0DAFC186850F822405868E1
:1006B00040F82240013298688242F5D30C33EAE7D1
:1006C0000022F8E71C6844F8220001325C68A2426C
:1006D000F8D30833E4E70022F8E700BFAFF3008067
:1006E000A5EDF5FEA5EDF5FE0000000000ED00E033
:1006F000F80B002000040020F80B00202806000062
:100700004C0600004C06000064060000EFF3088071
:10071000EFF309812DE9F00F6B46724600F004F902
:1007200008B0FFF79FFFFEE74FF47F03D3F83021B7
:10073000D3F83431072A05D1023B032B02D8024AF1
:10074000D05C704700207047B21E0000694A08B5AF
:10075000D2F8D03043F00203C2F8D030FFF7E4FF04
:1007600058B1654BD3F8202A3AB90D21C3F8201AA5
:100770000121C3F81C19C3F81C290022D30003F57A
:100780007F03D3F80013013107D0D3F800130132EF
:10079000D3F80433202A0B60F0D1FFF7C5FF0028FF
:1007A00040F0A080FFF7C0FF40B1544B544AC3F85B
:1007B00030254FF050230122C3F858254FF47F0312
:1007C000D3F83021D3F83431072A09D1023B032B67
:1007D00006D84C4AD35C1BB100224B4BC3F84C25C6
:1007E000FFF7A2FF50B14FF05023D3F80024D107F8
:1007F00042BF0022C3F81421C3F818214FF47F032D
:10080000D3F83021D3F83431072A09D14FF05023DF
:10081000D3F80024D20744BF6FF00102C3F80024CC
:10082000FFF782FF18B16522334BC3F80C274FF452
:100830007F03D3F83021D3F83431072A16D1324B55
:10084000D3F82034002B11DA4FF050230322C3F8E1
:10085000182501229A60D3F80421002AFBD0002237
:10086000C3F804210122DA60C3F818254FF47F038E
:10087000D3F83021D3F83431072A23D1023B032B9C
:1008800002D8224AD35CEBB17E221B4B1B49C3F832
:100890000C27C3F83C297F231D4AC2F818310023D6
:1008A000C1F8043EC1F8083E01F54821C1F81031F5
:1008B000C2F82431C2F82C3102F5FF1202F5805241
:1008C000C2F8A0320B4AD2F88C3043F44063C2F82D
:1008D0008C30104A104B1168C3F84415D269C3F824
:1008E0004C2508BD2922044BC3F80C270322C3F86A
:1008F0003C2757E700ED00E0004000500090035017
:100900004400EFBEAE1E000000200350AA1E0000EF
:10091000002000500080FF00006000507C22014950
:1009200003F0C4BC9C18002038B51D46214B224C56
:100930005B68C3F308032360EFF30383C4E901207A
:100940006365C2F3801302F00C020C2AE1602AD125
:100950000BB9EFF3898120221848216103F0A6FC2E
:1009600025B120222946164803F0A0FC114B9A6AB3
:10097000A265D96AE165986B206602F40040606662
:10098000586BA06602F08000E0669A62D962D3F8E4
:10099000E4202267D3F8E810616702F04001A16704
:1009A000C3F8E42038BD13B9EFF38881D3E70146DB
:1009B000D1E700BF00ED00E09C180020B018002037
:1009C000D0180020003A18BF0122003918BF0121B9
:1009D00003688900074841EA4201186359605A6870
:1009E00042F001025A60BFF34F8FBFF36F8F0020B8
:1009F000704700BF04AAFF000722024BC3F804237C
:100A0000704700BF00300050084BD3F80001D3F806
:100A10000421003818BF01200AB140F00200D3F8C9
:100A200008310BB140F00400704700BF00300050A7
:100A30000022074BC3F80021D3F80011C3F80421AA
:100A4000D3F80411C3F80821D3F80831704700BF68
:100A50000030005000231720094A03F5C07101330C
:100A6000402B42F82100F8D100231720044A03F557
:100A7000E0710133402B42F82100F8D1704700BFEC
:100A80000030005010B59DF80840800B43EA042365
:100A9000064C890B43EA0213884200D910BDC2B24A
:100AA00002F5C07244F822300130F5E70030005002
:100AB00010B59DF8084000F1604043EA042301F1BD
:100AC0006041074C400B490B43EA0213884200D9AE
:100AD00010BDC2B202F5E07244F822300130F5E7F1
:100AE00000300050C0F30D03C3F58043B3FA83F325
:100AF000C3F11B03064AC0F38730DBB240F48070B9
:100B000043F48073C2F80005C2F80435704700BF93
:100B1000003000504303014818447047FF1FF81F7E
:100B2000034B090200F5007043F82010704700BF26
:100B30000030005008B5FFF767FF014B186008BD93
:100B4000581F00200422014903F0B0BB581F0020A9
:100B500008B501F022F968B901F0B4FC58B9074AA8
:100B6000D36823F008031B041B0C43F0BF6343F45A
:100B70000033D36008BD45F22350FBE700ED00E0F1
:100B800008B500F06FF8BFF34F8F0549054BCA68F1
:100B900002F4E0621343CB60BFF34F8F00BFFDE769
:100BA00000ED00E00400FA05024B1860024B002043
:100BB00019607047601F00205C1F002013B5274C90
:100BC000426923685A6282699A62C269DA62026A79
:100BD0001A63426A5A63826A9A63C26ADA63026B70
:100BE0001A64426B5A60826B9A60C26BDA60026C64
:100BF0001A61426C5A61826C9A61C26CDA61026D50
:100C00001A62826D5A65C26D9A65026FDA65026E6C
:100C10001A66826E5A66426F9A66EFF388825A6449
:100C2000EFF389829A644268DA64EFF394821A657A
:100C3000026801A81A67FFF785FF2368019ADA6640
:100C400001221A70064B1C68640864002046214685
:100C50002246234603F003FC02B010BD601F0020B3
:100C60005C1F002000B5A1B001A8FFF757FE029B52
:100C700063B15B060AD4019B23F00203052B05D167
:100C8000044B1B6813B101A8FFF798FF21B05DF872
:100C900004FB00BF5C1F0020BFF34F8F0549064BCC
:100CA000CA6802F4E0621343CB60BFF34F8F00BF0A
:100CB000FDE700BF00ED00E00400FA05F8B5436869
:100CC0000C2B26D14B68042B23D14FF0FF33046843
:100CD0000E6821683360E1B1A268D2B10623012019
:100CE00000F0B3FFA8B961680B4BD3E9005CA942DF
:100CF0000AD3A26865448F18AF4205D8206803F074
:100D0000D5FA00203060F8BD0130042803F1080353
:100D1000EBD10220F7E700BFB81E0000436870B5B2
:100D20000C2B32D14B68042B2FD14FF0FF330668C8
:100D30000C683068236050BB7268550903D0012DE0
:100D40001CD14FF6FF7302F01F02D340D90719D50B
:100D5000B168072916D88B23CB40DB0712D57DB1AC
:100D6000012D16D10D4B03EB8203D3F8002222F0A4
:100D7000E04242EA0172C3F800220023236070BD02
:100D8000074BF0E74FF0FF33F8E70220F7E70320C7
:100D9000F5E70023803253F82230FFDE002884502C
:100DA000002584504B6830B513F01F052DD1026823
:100DB0000C681068C0F30720844226D25068556042
:100DC00094600C7C23F01F0304F001041C438B7C13
:100DD000DB0003F018031C434B7C5B0003F00603AD
:100DE0002343D3608B68013B23F01F04CB685B0077
:100DF00003F00E03234343F0010313615060BFF37C
:100E00004F8FBFF36F8F284630BD0120FCE703688A
:100E100000205A68C9B258609960D86018615A6059
:100E2000704770B50546002403681E68C6F30726A0
:100E3000B44201D1002070BD21462846FFF7E7FFEC
:100E40000134F5E780037047800300F57F503F30A1
:100E50007047002070473F2070474FF48040704734
:100E600000F57F40C03040037047402070477F202E
:100E700070474FF4005070470020704700207047C3
:100E80000020704770470346012B084670B5114695
:100E900007D0032B09D0002B31D1BDE87040FFF7FC
:100EA0000DBFBDE87040FFF739BF4368082B01D084
:100EB000022070BD5468042CFAD14FF0FF3305684E
:100EC0001668296833600029F2D06B68002BEFD0D8
:100ED00026237422012000F0B8FE0028E8D1224623
:100EE00023230120696800F0B0FE04460028DFD10A
:100EF000D5E90001FFF758FE30602046D9E703200E
:100F0000D7E7000008B5114B83F30A88104800F0BA
:100F10002FFFC0B9FFF71CFEA8B9FFF7ADFF90B9CE
:100F2000FFF7ACFF58B9FFF7ADFF00F067FE00F028
:100F3000B1FB00F029FA00F043FE002008BDFFF7E6
:100F40009FFF0028EFD000F097FDF2E7000400209B
:100F5000181900202DE9F04F93B00093574B8146AC
:100F6000D3F800B00BB2002B0D461646C1F3026851
:100F7000C1F3024A04DA6FF0800013B0BDE8F08FCD
:100F80008B42C36001D10020F7E708EB0A03042B72
:100F9000F1D8CC0F64014FEAC80731463A46DBF876
:100FA000080044F0020300F050FE01460028E2D1A0
:100FB000202202A803F09FF93A46314602A84FEAE0
:100FC000CA0603F073F932460099DBF8080044F0D2
:100FD000060300F03AFE07460028CCD10146202245
:100FE0000AA803F088F9324600990AA802AE03F075
:100FF0005DF933460137B84514D91A46BC460DE0B1
:10100000D2F808E0D16818687144884203D2596860
:1010100008448645AFD30CF1010C0832C445EFD12A
:101020000833E7E715F0006F18BF202409F118070F
:1010300007EB880844F00203474513D1202C26D142
:10104000002D02DBC5F3C0456C0109F128050AAE8D
:1010500005EB8A0A44F0060455451AD1009BC9F8ED
:101060007C3090E77268DBF8080056F8081B0193A3
:1010700000F0EBFD00287FF47EAF56F8042C019BB6
:1010800047F8042F56F8082C38633A62D4E7002456
:10109000DBE77268234656F8081BDBF8080000F00F
:1010A000D4FD00287FF467AF56F8043C45F8043FB0
:1010B00056F8083C28642B63CEE700BF1C190020BB
:1010C0002DE9F0411F461A4B0D461646D3F8008015
:1010D00000F0B4FE044608B900F0CEFCE368002B33
:1010E00001DA00F0C9FC032D01D900F0C5FC04EBC6
:1010F0008504E569E36CED1A16D006233A463146BD
:10110000D8F8080000F0A1FD08B100F0B5FCBD4220
:1011100028BF3D46E36CE16B2A461944304603F094
:10112000C5F8E36C2B44E3642846BDE8F08100BFBA
:101130001C1900202DE9F0411D461A4B0F4616469A
:10114000D3F8008000F07AFE044608B900F094FC61
:10115000E368002B01DA00F08FFC032F01D900F0C7
:101160008BFC04EB8704E36AE26E9B1AAB4201D26C
:1011700000F082FC02232A463146D8F8080000F02D
:1011800064FD08B100F078FCE36EE06D2A4631465C
:10119000184403F08BF8E36E00202B44E366BDE8AF
:1011A000F08100BF1C1900202DE9F04105464FF0E9
:1011B00001080E4E0E4B37685C681CB92846376034
:1011C000BDE8F0812268936813F400700CD1A36924
:1011D000012B09D0D368346023B19847002801DA85
:1011E00000F04AFCC4F81880246AE6E71C190020C5
:1011F0002019002038B5044610B96FF0800038BDC2
:101200008368002BF9D01A68002AF6D05D68002D9B
:10121000F3D00B4BE861A8691D6020B92B68DB682F
:1012200053B90123AB61A36804F10C001B681B696F
:10123000984701232360E2E798470028F1DADCE7CA
:101240001C1900204268024B08461A60704700BF14
:101250001C190020002330B505680446AA68C0E9BF
:10126000063312F4406F85B01CD012F4006202D035
:1012700000F03AF90246A96A2B6968460B44073127
:1012800023F0070321F00701CDE9021300930023A7
:1012900005490193EB6800F01DFA684600F0B1FDC6
:1012A000024B1C6005B030BDA91100001C190020C4
:1012B00001F00C0370B50C2B0CBF154605464A0611
:1012C0000C4619D58B0658BF2835AB6913F8026C4C
:1012D00084F00803C3F3C003C6F38012934201D025
:1012E00000F0CAFB16F0A00F02D14EB1032E10D0B1
:1012F0006FF083032B600AE000F0BEFB2026E7E7D7
:1013000000F0BEFA04460146044800F076FD20468F
:1013100070BD284600F0C4F9F9E700BFF80B0020C3
:10132000EFF308807146EFF30982EFF30B830CB4FF
:1013300006B4FFF7BDFF8646009900F0080001F0F3
:101340000801401A02DC12DB04B070471EF02003D3
:101350001CBF2DE9F00FBDF1080D0A4C25462646AD
:101360002746A046A146A246A34630B4704704B023
:1013700030BC1EF020031CBF1DF1080DBDE8F00FAE
:1013800004B07047A5EDF5FE084BDA6882F07F42A5
:1013900082F47F0242F48042DA6000221A765A76A2
:1013A000DA76DA77602283F82220704700ED00E0D9
:1013B000009A0A4B9A420FD10122904301460246FD
:1013C0000346044605460646074680468146824651
:1013D0008346844686460447FEE70000A5EDF5FEF9
:1013E00070B5324C86B03248FFF71BFD23680125EB
:1013F0005A1C01932F4B2260DA681B694FF4407628
:10140000039300232A4801A902920495ADF81460C1
:101410008DF81630FFF7C6FC18B143F6DA3006B087
:1014200070BD23688DF816005A1C0193224B20488A
:101430000293224B01A9CDE903352260ADF8146077
:10144000FFF7B0FC0028E8D123688DF816005A1C7D
:1014500001931B4B164802931A4B01A9CDE90335A2
:101460002260ADF81460FFF79DFC0028D5D12368F9
:101470008DF816005A1C0193134B0D480293134B21
:1014800001A903930223049340F201132260ADF8F3
:101490001430FFF787FC04460028BED12A462946AF
:1014A0000348FFF78FFA2046B9E700BF281900204C
:1014B00084100020041F0000401F0000A046000010
:1014C0002006000020060000000C0020200C002058
:1014D000014B1868704700BF041F0000014B1B68D8
:1014E00018687047041F0000014B1B68586870475C
:1014F000041F0000054B03EB8000D0F8003223F0FE
:10150000E04343F04053C0F8003270470025845058
:101510000020034BD8765A6A42F470225A62704710
:1015200000ED00E00349044BCA68002092B2134367
:10153000CB60704700ED00E00800FA05074A084B51
:1015400011680020C3F84415D269C3F84C25022263
:10155000C3F84025C3F84825704700BF0080FF004E
:101560000060005000224FF0FF30094B02F1A00153
:101570000132102A43F82100F8D1D3F8802200204C
:1015800022F00802C3F88022D3F88032704700BFEF
:1015900000E100E008B5FFF72FFA0822024BC3F87C
:1015A00080211A60002008BD00E100E0064BD3F85E
:1015B000D02022F00102C3F8D020D3F8D02042F08E
:1015C0000202C3F8D020704700ED00E037B50124D7
:1015D000FFF740FA134D2246052347F6FF7100201E
:1015E0000094FFF74FFA224607234FF000500E49B0
:1015F0000094FFF75DFAD5E901010723002200946A
:10160000FFF740FA07230022084909480094FFF732
:101610004FFA2969E8680139FFF764FA002003B03E
:1016200030BD00BF041F0000FF7F0020FFFF072028
:101630000080002038B50024134D002115F8010B5F
:101640000134FFF76DFA2A2CF7D1002101240F4A4B
:101650000846C2F88014C2F88444C2F8C014C2F824
:10166000C444C2F8C814C2F8CC44FFF743FF204674
:10167000FFF740FF064B0846C3F800454FF4807360
:10168000C2F8403438BD00BFD81E00000030005002
:10169000001000500122014B1A6070472C190020E5
:1016A00010B50446094B22891868616806238068D2
:1016B00000F0CBFA28B9064B1B68012B01D100F0D2
:1016C00087F86FF08603236010BD00BF1C1900204F
:1016D0002C1900202DE9F84305461E460068134BDF
:1016E0009046AA68A0F1080440E9023350389042BD
:1016F0000F4601D200F0C0F9A4F1480948220021A8
:10170000484602F0F8FD002344E9073344F8143C4E
:101710004FF0807344F8043C6FF0020344E9036720
:1017200044F8208CC5E90093BDE8F883A5EDF5FEEB
:1017300030B5094C024661680023084640B105688F
:101740006D68954205D11BB1826860609A608160C6
:1017500030BD03468068F1E7B019002038B5044673
:101760002AB10B689B68DB0512D5002038BD0B4BF6
:101770001D680DB900F080F900222B6899692C339F
:101780008A4203D053F8040FA04204D19142ECD115
:101790006FF0FC00EAE70132F2E700BF1C190020FD
:1017A00070B504460E461546002130220C3002F07A
:1017B000A2FD064B20461B68A6606360656100F0D1
:1017C00001FA00232061236070BD00BF1C190020B6
:1017D000044B1B681BB11B680BB1586870474FF076
:1017E000FF3070471C190020064B10B51C680CB95F
:1017F00000F042F923689B6813F4406F14BF012086
:10180000002010BD1C1900202DE9F8439046074622
:101810000C46FFF7E9FF024624B96FF0800420462A
:10182000BDE8F8836300F8D5144B04F01F0153F8AA
:101830002150002DF1D02B6829465868FFF78EFF04
:10184000B0B9C4F30721284600F0E6FA04460028A0
:10185000E3D1EFF3108972B600F0C1F9064689F3BF
:10186000108840B142462946FFF79AFF3E60D6E70E
:101870006FF08104D3E76FF08204D0E730190020C5
:101880002DE9F04100F0AAF90023134E134F7360C5
:101890007B6000F0E5F8DFF84880304600F022F881
:1018A0000446A8B139468023424600F07FF8054639
:1018B000204600F0F6FA206804F1080100F09FF9D4
:1018C00008B100F0D9F829462046FFF7C3FCE4E749
:1018D000BDE8F04100F071B920190020B0190020D6
:1018E00030190020F8B5054608B900F0C5F82A4EB1
:1018F000346814F1290F4CD8284B196804F12803D7
:101900008B4246D2236AA26903EB43030C32134491
:10191000606AE269024402EB820213449B00E3180E
:1019200001D2994201D200F0A7F823681C4A1B0C8F
:101930001B04934201D000F09FF82388B3F5817F08
:1019400001D300F099F86368002B01DA00F094F8F5
:10195000144A176807F124031360134A126893426C
:1019600001D900F089F8236AA26903EB43030C3222
:10197000616A1344E2693C600A4402EB8202134448
:10198000326802EB83026B6832603B626F603846FC
:10199000F8BD0027FBE700BF90100020201F0000CB
:1019A00000005F5F8C1000201C1F00002DE9F74F26
:1019B0000F4690460646009300B109B900F05CF866
:1019C000D6F800A0DAF818200AF1300303EB820BF6
:1019D000DAF81C40204B1D6854B10C2202FB045461
:1019E0001C601E4B1B689C4201D900F045F82C4638
:1019F00025464FF00009DAF81C204A4500D91CB9E9
:101A0000002003B0BDE8F08F142303FB09B20023CC
:101A1000C5E900269268AB60930516D5B8F1000FB2
:101A200002D0009B802B03D0019200F025F8019A90
:101A300012F0E00FD0B202D158F820201AB1019074
:101A400000F01AF8019848F820507A6809F1010965
:101A5000AA607D600C35CEE788100020181F0000BA
:101A600008B5FFF735FD034B9860FFF737FD80F3AE
:101A7000888808BD00ED02E0FFF782B882300128B7
:101A800008B506D8FFF7B0FE18B9BDE80840FFF763
:101A9000F3BF08BDF8B506460D4600F0CFF9044681
:101AA00008B9FFF7E9FFA7680FB9FFF7E5FFE3689B
:101AB000991C20D05A1C21D1A5B315F1820F13D146
:101AC00002232360EFF3108672B629462046FFF703
:101AD000B9FB054686F310882368022B24D12046E3
:101AE00000F086F82846F8BD15F1830FEAD0FFF71D
:101AF000C3FF0025E6E702232360FAE7002BF6DBAD
:101B0000204600F0BFF93B689B689B0501D5022386
:101B1000236015F1810FD5D16369002BD2DBFFF76C
:101B2000ABFFCFE73546F4E700232360DAE708B5DB
:101B3000FFF726F86FF0830008BD2DE9F3410E464C
:101B4000174698460546FFF74FFE00F08BF92946E9
:101B5000024601A8FFF758FE044660B943463A46DC
:101B600031460198FFF7F6F9044640B16B0002D503
:101B7000019800F03DF8204602B0BDE8F0810198E0
:101B8000FFF738FB0446F6E740F20110704770B5E6
:101B90000546FFF729FE06462846FFF7C9FD04461D
:101BA00008B9002070BD014632462846FFF7D6FD31
:101BB0000028F6D12368D868F4E76FF00200704778
:101BC00000DF70474FF480507047B0F5805F03D15D
:101BD000EFF30B8080387047002070477047EFF3B9
:101BE0000B8000F1800383F30B887047002070475F
:101BF000EFF30B83803B83F30B8870477047F0B59E
:101C000010B943F6DA30F0BD0029FAD0836800221B
:101C100013F4406F14BF012300230C24142543F058
:101C200002030B60016A8A4201D10020EBE704FB4A
:101C300002F3D0E9067603EB870305FB0633034482
:101C40009B6B1B07DDD40132EDE72DE9F0410E4619
:101C50001546002A4AD0C4074BD480F00204C4F3CE
:101C60004004A40003F00602062A4AD144F001040D
:101C700022462946304602F027FAB8BB46E800F271
:101C800005EB0608100E120208F1FF3747E800F3D3
:101C90004FEA136166D51B0264D5884262D046E8DC
:101CA00000F547E800F7FFF7D4F82D0E85424FEA1C
:101CB000176734D3FFF7CFF8874230D82846FFF7AD
:101CC000C3F82246C6F101010144304602F0FCF996
:101CD000002847D00135AF4218D83846FFF7B2F890
:101CE0002246A8EB000102F0EFF9D8B30020BDE8CE
:101CF000F081EFF39484A40004F0040444F012048F
:101D0000B0E7990731D544F00804B1E72846FFF75A
:101D100099F80646FFF7A1F822460146D5E7FFF7F6
:101D2000A4F885421ED3FFF7A2F887421AD82846A6
:101D3000FEF7F0FE2246C6F101010144304602F0F2
:101D4000C3F978B10135AF4203D83846FFF788F8B8
:101D5000C6E72846FFF784F80646FFF78AF82246CA
:101D60000146EBE76FF07F00C1E74CF2DA20BEE7F7
:101D700010B50446FFF71AFCFFF728FC10B143F634
:101D8000DA3010BDFFF756FC0028F8D1FFF728FB2A
:101D90000028F4D102232360F3E708B5FFF7B8FB6E
:101DA00010B143F6DA3008BDFFF7BCFB0028F8D1CC
:101DB000FFF7C4FB0028F4D162B6FFF7D3FB00287D
:101DC000EFD1FFF7E7FB0028EDD0EAE708B5FEF713
:101DD000B1FEFEF72DFEBDE80840FFF74DBEEFF364
:101DE0000880EFF309812DE9F00F6B467246FEF78C
:101DF0009BFD08B0FFF7EAFFFEE704460D46A54647
:101E000028470368283383F30988836883F30B88A2
:101E1000BFF36F8F4068704703689A68DB6812F4FD
:101E2000806F05D18B422CBF00206FF0FA00704705
:101E30008B420CBF00206FF0FA00704710B5FFF71F
:101E4000C4FE0446FFF7D2FE50B9FFF7C1FCA368F9
:101E50005B681B685B68834218BF0024204610BD86
:101E60000024FBE738B5054648B100F01BF8B5EB98
:101E7000D07F044601D0FFF7FFFD204638BDFFF7B5
:101E8000A7FCF4E7002310B500F1280252F8041F64
:101E900019B1C16F146C19444C600833202BF5D173
:101EA00010BD70474FF0FF30704700000001010186
:101EB00000000100000000000002FF002C000000F4
:101EC0005004FF00100000003001FF000800000077
:101ED000200CFF000400000000040508090B0C0A98
:101EE0000E0F101114151718191A1B1C1D1E1F2078
:101EF0002122232426282A2B2D3033343637394209
:101F0000428100000080000000800000FFFF0F0001
:101F1000007C000000800000F8110020E01100208B
:041F200010020000AB
:101F4000009A204B9A4208D110B502F0F7F902F03E
:101F500059F906BC96460C46744702F033FA009ACB
:101F6000184B9A4208D110B502F0F4F902F04AF980
:101F700006BC96460C46744702F024FA0CB4029A4A
:101F8000104B9A420CD14FF0004319430CBC10B5D2
:101F900000F09EF802F036F906BC96460C467447EF
:101FA00002F010FA009A074B9A4202D106490868DB
:101FB000744702F007FA009A024B9A4200D1744724
:101FC00002F000FAA5EDF5FE801000200348044B56
:101FD000834202D0034B03B11847704774110020AD
:101FE00074110020000000000548064B1B1AD90F91
:101FF00001EBA301491002D0034B03B1184770470E
:1020000074110020741100200000000010B5064C6F
:10201000237843B9FFF7DAFF044B13B10448AFF359
:1020200000800123237010BD8018002000000000F4
:102030008046000008B5044B1BB104490448AFF3C7
:102040000080BDE80840CFE70000000084180020B1
:1020500080460000A3F5803A704700BF174B002B65
:1020600008BF134B9D46FFF7F5FF00218B460F4637
:102070001348144A121A02F03EF90E4B002B00D0FE
:1020800098470D4B002B00D09847002000210400FA
:102090000D000D48002802D00C48AFF3008002F07C
:1020A0008BF820002900FEF72DFF02F071F800BF29
:1020B000000008000000000000000000F80B0020F5
:1020C000741100201C280020000000000000000007
:1020D0002DE9F84304460D4616461F46EFF30583E7
:1020E000C3F308030BB1FFF7C7FCDFF834903B469E
:1020F000204632462946D9F80080FFF71EFDD9F860
:1021000000300446984506D0DB6901461869BDE8F1
:10211000F843FFF7BFBCFFF7B1FC2046BDE8F883EA
:102120001C19002001680E4A0346914215D1C1696D
:10213000A2F11022A2F1EF1291420ED18268012A7F
:102140000BD8C26812B101698A4206D0586928B119
:102150009B691B1A5842584170470120704700BFC5
:1021600055AA00FF0D4B70B59E68A6B13046FFF72B
:10217000D9FF044678B9F3686BB935690DB92046C3
:1021800070BD2846FFF7CEFF28B9EB68B34202D1F5
:102190002E462D69F2E70124F1E700BFB8190020AF
:1021A0002DE9F041394E3468F368D4B1B468C4B154
:1021B000002861D000295FD001FB00F5B5FBF0F0ED
:1021C000884259D1291D57D8AA070DD025F00302FE
:1021D00004321C4603E0616891424FD2A469002C8E
:1021E000F9D12046BDE8F0812A46F2E7891A232971
:1021F00004F12007D4E9050C1AD80123A360A0B18B
:10220000C0F818C0A36903B158610023C4E90533BD
:102210003369DB0702D5FFF7A5FFA0BB2A460021E3
:1022200038463C4602F067F8DBE7C6F80CC0E9E741
:1022300002F1200804EB08032039C3E9011E2169DB
:10224000DFF84CE0DC60196144F808E0AEF1102ED4
:10225000AEF1EF1EC3F81CE001B1CB60C3E9050C81
:1022600040B18361996901B14B6101212361C4E9E6
:102270000121CAE7F360F5E70024B2E7D4F808E0EB
:10228000BEF1000FB2D0012001F082FFB81900208A
:1022900055AA00FFF8B5054600283AD0364E3368F7
:1022A000002B36D0B268002A33D0834203D872683C
:1022B0001344984202D3012001F06AFFA0F12004E8
:1022C0002046FFF72FFF0028F5D155F8183C012BC9
:1022D000F1D145F8180C55E90570DFB1BB68CBB9F1
:1022E00055F81C2C7B68203213447B60386100B1A8
:1022F000C76020220021204601F0FDFF386908B1A7
:1023000083682BB333699B0703D5FFF72BFF0028A6
:10231000D1D1F8BD40B3836833BB426863681344CE
:10232000203363600369D4E90521236192B9B9B907
:10233000426981696261A161A2B19461A26902B13D
:10234000546103B1DC602022002101F0D4FFD9E701
:102350003C46E2E79161A1690029E9D04A61E7E7DB
:10236000F160F8E7F460E9E7F36845F8083C03B189
:102370005C61F460C6E700BFB819002038B50D46AF
:10238000142200210446124801F0B5FF11491248F9
:1023900000F02CF8232D1AD914F003031FBF043DBD
:1023A000ED18C3F10403E4182A460021204601F089
:1023B000A2FF074B094AC3E900459C602260A2F1D5
:1023C0001022203DA2F1EF126560E261DC6038BDB1
:1023D000B819002095220000A121000055AA00FF95
:1023E000014B1B68184700BF94100020024B186077
:1023F000024B0020196070479810002094100020B4
:1024000010B50A46044619B1024B00211B689847D3
:1024100010BD00BF9C100020054B0A46197819B169
:102420000146181D02F008B86FF08800704700BF21
:10243000CC19002010B5074C00F032F8204602F00D
:102440000CF8201F0821FFF7DBFFBDE8104001F06A
:10245000F0BF00BFD019002070B50C4D2B787BB9B0
:1024600001F0E5FF044670B90126281D6E7001F0E9
:10247000E1FF044638B900F00BF8044618B92E7095
:102480000024204670BDFFF7D5FFFAE7CC190020E5
:102490000122024B002083F880257047D4190020C8
:1024A000F8B5074C2025264601272046276201F073
:1024B000ADFF013D04F12C04F7D186F88055F8BD3D
:1024C000D419002010B50C4C236813B10B4B1B68BA
:1024D0002BB900F093FC30B90122084B1A6001239C
:1024E0002360002010BD0138072801D9044810BD21
:1024F000044B53F8200010BD681F0020641F00200B
:10250000FE8FFFFFE4440000144B2DE9F043002848
:1025100014BF04461C46124F236883B0BB4219D037
:1025200016460D4620464FF4147104F1040900F0DC
:1025300047F804F58E78484600F0CEF8404600F0A3
:1025400019FA2B464A4640460649009600F034FBED
:1025500008B92760002003B0BDE8F0836C1F00209D
:10256000A5BCC95A5D27000070B50D4C1D4600285A
:1025700014BF064626460B4B306882B098420DD1F8
:1025800006F58E70002633460096144600F03EFB9A
:10259000002818BF34462C6002B070BD0248FBE72B
:1025A0006C1F0020A5BCC95AE88FFFFF38B131B1BC
:1025B000002201440346013081421A70FAD170476B
:1025C00038B131B1002201440346013088421A700B
:1025D000FAD170472DE9F043202B1D460646884668
:1025E00091468BB026D8DBB202AF8DF80480B0469E
:1025F00058F8041B8DF8053021B9404601F026F942
:10260000044640B9012302224046336001A901F08B
:1026100031F9044638B138462021FFF7D1FF204672
:102620000BB0BDE8F0832A464946404601F022F946
:102630000446F0E702AF1946104600233A4601F07F
:102640009FFA04460028E6D12023B9461D46CCE770
:102650002DE9F041D0F8F830A6B0002BD8BF02AE7B
:1026600031DD05460027D0F80C4102AEA4F1010887
:102670009022D5F8FC403146D0F8000101AB01971B
:10268000B8FA88F8A0474FEA5818044620B9019BC9
:1026900053B9B8F1000F16D030469021FFF790FFE4
:1026A000204626B0BDE8F081014632462846FFF7B5
:1026B00091FF58B9D5F80431019A1344C5F8043193
:1026C000B8F1000FE8D16FF03C04E5E7044620467E
:1026D00026B0BDE8F08100BF70B500250446142285
:1026E00004F588762946C0F8F850FC3001F003FE66
:1026F00008222946304601F0FEFD144B30461B6887
:102700009847204640F8045B01F086F8104B3046AD
:102710001B689847C8B9D4F8F830AB420FDC03EB1C
:10272000830204EB82022021C2F800010120C2E9E9
:10273000421008490133C2F8FC10C4F8F830064BC7
:102740003046BDE870401B68184770BDBC100020C3
:10275000B810002015370000B41000202DE9F04714
:10276000202A88B07AD83F4B00F5887904461B6848
:1027700048461746884698470546F8B940F201167C
:10278000D4F8F830002B65D02046FFF761FF0546EE
:1027900038B9D4F8F830002B14DC013EF2D16FF0D8
:1027A0003B056E4620213046FFF70AFF2E4B484678
:1027B0001B689847002818BF6FF01D05284608B011
:1027C000BDE8F087D4E94132934203D3D4F80C2119
:1027D000012A02D0013ED7D1E1E71F2BFAD96E467C
:1027E00001462022304604F1040A01F084FD3146FE
:1027F000504601F069F805460028D3D1504601F053
:102800001FF8504601F008F82946504601F01EF81E
:1028100005460028C6D150462022314601F02AF84C
:1028200005460028BED1034632462021304601F03D
:10283000A7F905460028B5D1D4F8F8303A46002B60
:10284000C8BF002340463146C8BFC4F8043101F078
:102850002DFDA7E76FF03F056E46A3E76FF03B0540
:10286000ACE700BFB8100020B410002070B590B0E5
:1028700000287AD03E4C0D4640223621064620469E
:1028800001F039FD40225C21A01801F034FD2B1D20
:10289000A34203D904F144039D4252D32B6822681A
:1028A000534023602B68226C534023646B6862683A
:1028B000534063606B68626C53406364AB68A268AA
:1028C0005340A360AB68A26C5340A364EB68E2681A
:1028D0005340E360EB68E26C5340E3642B69226988
:1028E00053402361226D2B695340236562696B69F4
:1028F000534063616B69626D53406365AB69A26964
:102900005340A361AB69A26D5340A365EB69E269D3
:102910005340E361EB69E26D5340E36500213046CB
:1029200000F094FF044628B940223046104900F0D8
:10293000A1FF044640216846FFF742FE204610B042
:1029400070BD631E04F13F01013D1F3415F8010FF6
:1029500013F8012F42401A7011F8012F2878A34272
:1029600082EA00020A70F1D1D8E76FF07304E5E75C
:10297000BC21002010B54FF49A720021044601F0EA
:10298000BAFC42F21072044BC4F8202104F5967090
:102990001B68BDE810401847BC1000202DE9F04F1F
:1029A00004468846914695B0002900F0A780002A89
:1029B0000CBF0126022600238DF80C30002C00F0FD
:1029C0009F80DFF844A104AF0AF1400B00212046AC
:1029D00000F03CFF034648B1384620210193FFF741
:1029E000EFFD019B184615B0BDE8F08F402251461F
:1029F000204600F03FFF03460028EDD104F1F40526
:102A000020222946204600F035FF03460028E3D166
:102A10000122204603A900F02DFF03460028DBD148
:102A2000022E62D020460CA900F04EFF034600287B
:102A3000D2D10146204600F009FF03460028CBD141
:102A400040225946204600F015FF03460028C3D116
:102A5000202220460CA900F00DFF03460028BBD120
:102A60003946204600F030FF03460028B4D13946ED
:102A70002046FFF7FBFE03460028ADD12022294661
:102A8000204600F0F7FE03460028A5D120460CA9F9
:102A900000F01AFF034600289ED10146204600F0B0
:102AA000D5FE0346002897D140225946204600F023
:102AB000E1FE034600288FD1202220460CA900F019
:102AC000D9FE0346002887D12946204600F0FCFEA7
:102AD0000346002880D19DF80C200132D2B2B242C8
:102AE0008DF80C20FFF472AF76E74A464146204647
:102AF00000F0C0FE0346002894D06DE701265AE797
:102B00006FF0730304AF67E7BC2100202DE9F041AB
:102B10000446884615461F46D0F81801E0B013B1A8
:102B200000EB40004008B5F5807F3ED82844B0F562
:102B3000C07F3AD84FF4C0720021684601F0DBFB39
:102B40006946D4F82431D4F81821D4F828019847DC
:102B500070BBD4F8186157B1D4E9493072080DEB55
:102B60000601984720BBD4F8183106EB5306B8F19C
:102B7000000F00D08DB9324669462046FFF70EFFA0
:102B8000054610B90123C4F8143131466846FFF7F1
:102B900017FD284660B0BDE8F0810DEB0600414608
:102BA0002A462E4401F082FBE5E76FF00405F0E7CA
:102BB0006FF00805EDE700BF2DE9F047044604F18A
:102BC000F4050F4691461E46DDF8208000F024FEF5
:102BD00029462046FFF74AFE08B1BDE8F08728469F
:102BE0002022012101F087FBD4F81831C4F82471A8
:102BF000C4F8289113B92023C4F81831424631464D
:102C00002046BDE8F0470123FFF780BFB2F5806F93
:102C100000F295802DE9F04F89B09A46129BB3F5EA
:102C2000807F00F29080D0F82431164604460F468B
:102C30004BB3D0F81C31012B05D0D0F81421D0F8BB
:102C400020319A421FDD514600232046129AFFF799
:102C50005DFF014698B900231293002E5ED0DFF885
:102C6000EC9009F1400B0021204600F0EFFD202EF2
:102C70003546014628BF202504F1F40890B10846E6
:102C800009B0BDE8F08FBAF1000FE6D0129B002B1F
:102C9000E1D051461A462046FFF780FE0146002843
:102CA000DBD0ECE749464022204600F0E3FD014638
:102CB0000028E4D141462022204600F0DBFD0146F9
:102CC0000028DCD16946204600F0FEFD01460028C0
:102CD000D5D1204600F0BAFD01460028CFD1594693
:102CE0004022204600F0C6FD01460028C7D16946B3
:102CF0002022204600F0BEFD01460028BFD14146FB
:102D0000204600F0E1FD01460028B8D138462A46A9
:102D1000414601F0CBFA761B2F44A4D15146204600
:102D2000129AFFF73BFE01460028A8D10846D4F8C6
:102D300014310133C4F8143109B0BDE8F08F6FF0DD
:102D40000201084670476FF0040198E7BC2100209B
:102D5000002130B58DB0282202A8019101F0CBFAF4
:102D600002A800F035FF044610B120460DB030BD7A
:102D70001B4D4FF0FF31286800F032F960BB194B52
:102D8000D3F8340E10F0010017D100F059F9F8B95A
:102D9000154A02A901A800F0AFFC0446012000F08A
:102DA0004FF988B9286800F023F90028DDD00F48D2
:102DB00000F0ACF920460DB030BD2868052400F0C5
:102DC00017F90028D1D0F2E7094800F09FF9E9E7A8
:102DD000084800F09BF9DBE7074800F097F9CEE7D9
:102DE000A0100020006084503C2200205C450000C0
:102DF0003C4500001C4500000445000030B583B090
:102E000000F036F878B900F055F890B9144BC3F8D3
:102E10000C0AFFF79DFF0446F8B9124D2B6863B109
:102E2000204603B030BD032400F072F8204603B002
:102E300030BD0424204603B030BD02460146FFF7F2
:102E400063FB50B96822084901ABFFF78DFB20B93D
:102E50002046064B2B6003B030BD0524E0E700BFE1
:102E6000005084505C240020602400205AEA5A5A02
:102E700000207047430504D54FF0FF32034BC3F8E1
:102E80000821024BC3F8080A704700BF0050845065
:102E9000014BC3F8040A70470050845008B100F099
:102EA00071B84FF47500704708B100F04FB84FF497
:102EB0007500704710B5114800F07EF800B110BDE4
:102EC0000F4800F079F80028F9D10E4C204600F0A8
:102ED00073F80028F3D10C4B0C481C6000F06CF820
:102EE00001460028EBD100F02DF8044608B1204639
:102EF00010BD00F087F82046FAE700BFB0100020B0
:102F0000AC100020A8100020A0100020A410002069
:102F100008B5084800F05AF8074800F057F8074885
:102F200000F054F8064800F051F8BDE8084000F001
:102F30000BB800BFB0100020AC100020A81000207B
:102F4000A410002000207047704700BF10B4024654
:102F50000B4C01E0134207D1D4F8003A13F480700F
:102F6000F8D0012042F4807229B1054BD3F8044116
:102F70000C60C3F80841024BC3F8082A10BC704724
:102F8000005084500246084901E01A4207D1D1F8A6
:102F9000003A13F48070F8D0012042F48072024BA2
:102FA000C3F8082A704700BF0050845001F073BA7C
:102FB0000A46002101F09FB908B5034B02681B685F
:102FC00010689847002008BDDC10002008B5034BAE
:102FD00002685B6810689847002008BDDC1000207C
:102FE000024B02689B681068184700BFDC10002085
:102FF00008B5034B0268DB6810689847002008BDDD
:10300000DC10002070B5094C094D2069AB68984769
:1030100018B1084B08485B6898470021074AEB68DD
:1030200011602069BDE87040184700BFC81000203B
:10303000DC100020C010002074450000C8240020CF
:10304000F8B51A4D1A4E0446B26828699047E8B997
:10305000184F3B684CB1A3B1012B19D0013B3B6029
:103060002869F36898470020F8BD43B90121124A46
:10307000C2F800151149D1F81029002AFBD10133FB
:103080003B60F368286998470020F8BD0C48F8BDFC
:103090000A4AD2F81039002BFBD1074A6FF07E4064
:1030A000C2F80035FFF7F4FE3B68D7E7C8100020F0
:1030B000DC100020C82400200040845000508450C0
:1030C000E98FFFFF014B1B68184700BFDC10002091
:1030D000014B9B68184700BFDC100020014BDB68E8
:1030E000184700BFDC100020BFF34F8F0549064B87
:1030F000CA6802F4E0621343CB60BFF34F8F00BF96
:10310000FDE700BF00ED00E00400FA0530B44FF029
:10311000FE3200250B4B0C4C0C494968C3F80024C7
:10312000C3F80424C3F80824C3F80C24C3F81024FB
:10313000C3F81424C3F81824C3F81C24C4F8005599
:1031400030BC08470050845000408450C01000201C
:1031500010B5044650B1636813F0685F05D0064AA5
:10316000934202D000236260236010BD034B0448E9
:103170005B689847EFE700BF2C5F5CA9C010002098
:1031800094450000C8B143680D4A934213D013F030
:10319000685F0ED0012350E8002F194640E8001C5C
:1031A0009CF0000FF7D1012AF5D0BFF35F8F00200C
:1031B000704704487047044870476FF4E040704718
:1031C0002C5F5CA9E98FFFFFEA8FFFFF034680B108
:1031D000426809498A420AD012F0685F05D0BFF3FD
:1031E0005F8F002210461A607047044870470448F9
:1031F00070476FF4E04070472C5F5CA9E98FFFFFD8
:10320000EA8FFFFF10B5044620B10023034A236074
:10321000626010BD0248FFF779FFF6E73A00003A16
:10322000BC4500002DE9F041002873D00C46002970
:1032300070D01D46002B6DD007461AB10122002325
:103240002A6003602B68002B5FD02946204600F0DF
:1032500079FD804600285AD12146286800F058FDA3
:103260008046002853D12868082867D0042867D0F2
:10327000A0F10200B0FA80F040090121314EC6F8F9
:10328000C411C6F84011C6F8C411636AC6F83031DB
:10329000D6F830219342F6D10023C6F82C314FF0F6
:1032A000FF33C6F808316FF01B03C6F80031C6F8CB
:1032B0000C01D6F8040A40F48060FFF7E9FD0A2308
:1032C000C6F83831069B012B29D023691E4AA2FB80
:1032D00003231B09626A404602FB03F303EB43032B
:1032E000184ADB039B09C2F8D8310123C2F82C31FC
:1032F0003B682A6823F07F4343EA02633B602A6805
:1033000043EA02233B60BDE8F081DFF8408040469D
:10331000BDE8F081DFF838804046BDE8F0814FF429
:103320007F03D3F80C2C013206D0D3F80C3C064AAC
:10333000A2FB03231B09CDE71623CBE703209CE761
:1033400002209AE700508450ABAAAAAA310CF100DF
:10335000350CF10058B34B1EB3F5047F27D230B5BE
:103360004FF0000ECD00744671464B0901F01F0C62
:1033700050F82330BCF11F0F23FA0CF306D003F0F2
:10338000010319B901211C468E46EEE79C4201F16A
:10339000010106D01C464FF0010EA942E5D10020E4
:1033A00030BD0EF1010E9645F7D1024830BD0148FF
:1033B000704700BF360CF100C0B32DE9F0434C1E3E
:1033C000B4F5047F1DD2E3B1DAB100252E46A8463C
:1033D0002C46CF0003F1FF394FEA541C04F01F0EB6
:1033E00050F82C10BEF11F0F21FA0EFC0CD00CF07F
:1033F000010C4CB90126E04634463546ECE79642CE
:1034000016D90C48BDE8F083AB420BD0C44508BFC9
:103410000136A945F3D001350134BC42DCD100208E
:10342000BDE8F0830125E0462E46F5E701487047E8
:103430001D46F1E7370CF1002DE9F04F8FB08246C1
:10344000DDE919460D46002E6ED1096904911C6014
:10345000002318990B60002A00F02881994B6A6AB2
:10346000D3F83811D3F830319A4269D10A2967D19B
:103470009AF80330069304F1080305930423049A91
:103480000393914B8F4CA3FB023B4FEA9B0B0BEB3F
:103490004B0BA2EB4B0B189B049E1E60002E00F002
:1034A000E580002700F05EFC0797BAF1000F00F0FE
:1034B000D0804FF00109DDF81480002D00F0C980A4
:1034C000069B002B3ED0284606A900F03BFC0028B6
:1034D0003AD07E4B984220D0069B082B00F0E0802B
:1034E00000225B000693294606AB50460092FFF788
:1034F00099FE774B984200F0CF8070B9DAF800203F
:10350000130A03F47F03134323F07F43CAF8003008
:10351000039B013B0393BED10020039000F022FCEB
:1035200003980FB0BDE8F08F4FF47F01D1F80C0C79
:1035300001300CBF4FF40471D1F80C1C049186E7E4
:103540006448EAE76248C4E72946069800F0E0FBD1
:103550000028BED1069B082B00F0A480042B00F0AD
:10356000A380A3F10203B3FA83F35B09C4F8C49107
:10357000C4F84091C4F8C4916A6AC4F83021D4F800
:1035800030118A42F6D10022C4F82C214FF0FF32CC
:10359000C4F808216FF01B02C4F80021C4F80C31F4
:1035A000D4F8040A40F48060FFF772FC0A23C4F8E0
:1035B00038312B69444AA2FB0313696A1B0901FBDA
:1035C00003F303EB4303DB039B09C4F8D831C4F8CE
:1035D0002C910698DAF8003023F07F41030243EA89
:1035E00000630B43CAF8003007A800F081FB079B7B
:1035F000354A03F01A0303437FF46EAFA2FB063291
:10360000D4F81431B7EB920F0893D4F8183109931A
:10361000D4F81C310A93D4F820310B93D4F8243118
:103620000C93D4F828310D9302D1BBF1000F12D1C5
:103630004046182208A9183EFFF7B8FC08F1180800
:1036400001379EB100F08EFB00230793002D7FF41D
:1036500037AF21483DE740465A4608A9A6EB0B067E
:10366000FFF7A4FCD8440137002EEBD1049F059E40
:103670006A6939463046FFF76DFEAA6940B94FF4D2
:10368000806339463046FFF797FE00283FF444AF89
:103690000023189A13601CE72B6A002B3FF43DAF00
:1036A0000E483AE7032361E702235FE70122294638
:1036B0005046009606ABFFF7B5FD00283FF4DBAEA1
:1036C0002BE700BF00508450ABAAAAAA020CF1005D
:1036D000310CF100300CF100350CF100320CF1002E
:1036E00010B4DDE9013401940024DDF80CC0CDE90B
:1036F00002C410BCFFF7A0BE30B51546012487B048
:1037000005AB00930022CDE9015404ABFFF794FE12
:1037100007B030BDF0B587B0002967D01E46002B3A
:1037200064D01446002A61D0324F0D4638684FF0FD
:10373000FF31FFF755FC00283DD12F4BD3F8340E55
:1037400010F0010015D04FF0FF354FF408712B48F1
:10375000FEF72CFF04212A48FEF728FF29482821DC
:10376000FEF724FF3868FFF743FC40BB284607B04C
:10377000F0BDFFF765FC002834D1224800F028FA9C
:1037800070B91E4A0346029205AA019204AA039048
:1037900000921C4902461A48FFF7A2FF0346A0B157
:1037A0004FF0FF350120FFF74BFC0028CDD0164825
:1037B000FFF7ACFCC9E71548FFF7A8FCBDE71448C4
:1037C000FFF7A4FC284607B0F0BD28461D46059B20
:1037D00022469C4228BF1A46049932600831FFF7FE
:1037E000E5FBDFE70B48FFF791FCC6E74FF0FF353D
:1037F000BCE700BFA0100020006084500825002016
:10380000DC240020E02400203C45000004450000AA
:10381000E04500001C45000010B5044628B12046D4
:10382000BDE81040F421FFF7C3BB0448FFF76EFC6E
:103830002046BDE81040F421FFF7BABBF845000070
:1038400010B1F421FEF7B2BE704700BF08B521B138
:10385000012908D06FF0360008BD012100F058F8AA
:103860000028F7D108BD022100F052F80028F9D055
:10387000F0E700BF30B505468818B0F5801F0B464D
:103880001446A1B001D8802A0CD9B3F5801F17D9EE
:1038900022461946284600F07DF8044684B92046A1
:1038A00021B030BD6846FFF781FB224669462846B5
:1038B00000F070F8802104466846FFF779FBEDE7D9
:1038C0006FF03604EBE700BF70B5E8B10E46D9B132
:1038D000044600F031F80546B0B92368012B0BD03F
:1038E000022B01D0284670BD1C22304604F108018D
:1038F000FFF75CFB284670BD2022304604F108012A
:10390000FFF754FB284670BD6FF03605EAE700BFAD
:1039100078B138B50D46F0210446FFF749FB402346
:1039200020462560E36500F061FA003818BF0120E9
:1039300038BD0120704700BFF0B5056EA5B0044644
:1039400004AEE5B90023012701933046676029469C
:1039500002AA009300F018FA10B1012025B0F0BDC2
:103960002A46204602A900F069FA0028F5D120462F
:1039700000F06CFB0028F0D1206625B0F0BD802D52
:103980002A46304628BF802204F16401FFF70EFB6F
:10399000256ED7E7002800F0AE802DE9F04F1446E1
:1039A000A5B0002A3DD00F46002949D0B2F5803F8E
:1039B0000546006E20D34FF6FF7805F1640AEB6DE3
:1039C0001A1AB2FBF3F103FB1122002A65D18342DC
:1039D000B9464FF6FF7672D0B6FBF3FB03FB0BFB49
:1039E000BBF1000F30D1002E45D1A4F57F44FF3C40
:1039F000B4F5803F4744E2D2EA6D161AB6FBF2F303
:103A000002FB1366A64228BF2646002E75D18242CD
:103A100000F08D80B4FBF2F602FB06F62EB9002C06
:103A200079D1002025B0BDE8F08F0023314638461B
:103A3000CDE9003302AA00F0A7F9002800F0958034
:103A4000012025B0BDE8F08F002359464846CDE956
:103A5000003302AA00F098F90028F1D15A4628460E
:103A600002A900F0EBF90028EAD1A6EB0B06286EBC
:103A7000D944002EB9D019304946324605EB8000B2
:103A8000FFF794FAA4F57F44286EFF3C3044B4F568
:103A9000803F4744286692D2AEE7424528BF42465F
:103AA000164639465044FFF781FA286EEB6D3044D4
:103AB000834207EB06092866A8EB06068CD1802B0B
:103AC00028BF802351461A4604A8FFF76FFA002347
:103AD000E96D02AACDE9003304A800F055F90028E9
:103AE000AED12846EA6D02A900F0A8F90028A7D1B6
:103AF000EB6D286670E70120704705F164033946D5
:103B000032461844FFF752FA286EEA6D3044A41B7F
:103B1000374428667BE72B6E2246193305EB83007A
:103B20003946FFF743FA2B6E23442B6679E7802A48
:103B300028BF802205F1640104A8FFF737FA0023AB
:103B4000E96D04A8CDE9003302AA00F01DF90028B0
:103B50007FF476AF2846EA6D02A900F06FF90028DD
:103B60007FF46EAFEA6D286654E73246284602A914
:103B700000F064F900287FF463AF3744A41B4EE7DC
:103B8000F8B51C460546114816460F46FFF744FE99
:103B900021460E48FFF75AFE044620B10B48FFF7B6
:103BA0004FFE2046F8BD3A4629460848FFF762FE18
:103BB00004460028F2D131460448FFF785FE04464A
:103BC0000248FFF73DFE2046F8BD00BF2827002031
:103BD0001C2370B582B001A90546019300F032F8AC
:103BE000044638B9019B1C2B07D0144C1C212846D5
:103BF000FFF7DEF9204602B070BDD5E90112131EB1
:103C000018BF0123003918BF0121012628689B0035
:103C1000EA6843EA4103002818BF43F00103EE615C
:103C20002AB9C5E90834002BE4D1054CDEE720466B
:103C300043F00803C5E9083402B070BD370CF0004A
:103C40000E0CF000034618B111B10A681C2A01D00D
:103C5000012070474FF47F02D2F8101C01310CBFD5
:103C600040F2DC51D2F8101C4FF47F020160D2F810
:103C7000141C01310CBF40F2DC51D2F8141C4FF47B
:103C80007F024160D2F8181C01310CBF40F63401AC
:103C9000D2F8181C4FF47F028160D2F81C1C01314D
:103CA0000CBF40F63401D2F81C1C4FF47F02C160F7
:103CB000D2F8001C01310CBF9021D2F8001C4FF447
:103CC0007F020161D2F8041C01310CBF5121D2F8EE
:103CD000041C4FF47F024161D2F8081C002001311E
:103CE0000CBF40F23732D2F8082C9A61704700BFFF
:103CF000014608B54FF48060FFF7D6F80022034B69
:103D0000C3F8C821C3F82C2108BD00BF005084505F
:103D10000138072805D8DFE800F0100E040A040473
:103D2000040607487047CB6800204B6270478B68D9
:103D300000204B6270474B68F6E70B68F4E700BF62
:103D4000310CF1000B6802E0082B0B6006D8026A08
:103D500013424FEA4303F7D00020704700487047F2
:103D6000310CF100002310B5064C4FF48060C4F80C
:103D70002C31C4F8C431FFF77DF84FF0FF33C4F89D
:103D8000083110BD005084502DE9F041002482B06C
:103D900015461E4601220DF107030746DDF8248073
:103DA0008DF8074000F08CF9D0B99DF80730044633
:103DB0002F602B71B8F1000F0ED04EB1024608995A
:103DC00030460DF1070300F07BF948B99DF8073044
:103DD000C8F8006088F80430204602B0BDE8F081E1
:103DE0004FF47504204602B0BDE8F081D8B108B5A3
:103DF0000368012B04D0022B0FD043B10B4808BD40
:103E000020220B490830FFF7D1F8002008BD14220A
:103E100008490830FFF7CAF8F7E7202206490830BA
:103E2000FFF7C4F8F1E74FF4730070470100F300A7
:103E30000846000048460000284600002DE9F047EB
:103E4000002900F0EB800446002800F0EB800368B6
:103E500088469146002B00F0B580013B012B00F213
:103E6000C9804FF0FF3171484FF0020AFFF7B8F8F0
:103E7000002840F0B1800020FFF7E2F80746002854
:103E800040F0B4806A4DD5F81069002EFBD14FF098
:103E9000FF30FEF7EFFFD5F8040A20F40060FEF7CC
:103EA000F7FF01230722C5F81838C5F82038C5F8F0
:103EB0000029C5F8C437C5F8A466A36CC5F8CC378B
:103EC000E36CC5F8D037C5F8C0A723685BB1013BE8
:103ED000012B18D8636AC5F85C36236AC5F85836D2
:103EE000E369C5F85436A269514BC3F8502662699C
:103EF000C3F84C262269C3F84826E268C3F8442672
:103F0000A268C3F84026B9F1000F56D063684FF499
:103F10000060012B04BF464AC2F8843698F804308A
:103F2000D8F80010424A5B0003F00203C2F80C3BD1
:103F3000C2F8281CC2F82C9CFEF7B0FF0746236885
:103F400063B1013B012B19D8394BD3F85C2662626F
:103F5000D3F858262262D3F85436E361344BD3F8B1
:103F60005026A261D3F84C266261D3F8482622611C
:103F7000D3F84426E260D3F84036A3600022012142
:103F80002B4BD3F8CC07A064D3F8D007E064C3F878
:103F9000C417C3F88426C3F8C827C3F81828C3F881
:103FA0002028AFBB0120FFF74BF868BB1F48FFF785
:103FB0001FF818BB3846BDE8F08704221C4BC3F835
:103FC000C827BCE74FF0FF3118484FF0010AFFF750
:103FD00007F800283FF44FAF1648FFF797F8002086
:103FE000FFF72EF8074600283FF44CAF1248FFF7C2
:103FF0008DF847E7114F3846BDE8F0871048FFF7C6
:1040000085F83846BDE8F0870E48FFF77FF8CDE722
:10401000102104F10800FEF7CBFFC3E70A4F384632
:10402000BDE8F0874FF47307C4E700BFB01000206D
:1040300000508450044500001C4500000100F300BE
:104040005C4500003C4500000300F300A0B30346BC
:1040500070B4D0E90240D3E9041226BA05BA0CBA0A
:1040600010BAC3E90440D3E90612986A09BAC3E951
:10407000026512BA996100BAD3E9084125BA0CBAAF
:10408000C3E90725D3E90B12C3E9094009BAD86B84
:1040900012BAD962D3E90D4125BAC3E90C250CBA8D
:1040A00000BAD3E9101209BA12BAC3E90E40196472
:1040B00000205A6470BC70474FF47300704700BF13
:1040C00000201870704700BF431810B501D21F2A96
:1040D00001D9002010BD013902F014030144102B56
:1040E00080EA01043CD009DC8BB1042BF1D11F2CF8
:1040F00040E840F315D941E840F10EE0142BE8D137
:104100001F2C40E8C0F30CD941E8C0F105E01F2C9A
:1041100040E800F305D941E800F11C460B468C420B
:10412000D7D122F01402013A0A2AD2D801A151F8BB
:1041300022F000BF834100007D4100006F4100007C
:10414000D3400000D3400000D3400000D340000023
:104150008941000083410000774100006F41000069
:104160001F2C40E880F3DCD941E880F1D5E713F457
:10417000001FAFD1ADE713F4801FFAE75B02A9D5AA
:10418000A7E713F4002FF4E713F4802FF1E700BF43
:1041900008B5074B044613B10021AFF30080054B6F
:1041A0001868836A03B19847204600F029F800BFD9
:1041B000000000005C46000070B50D4D00260D4C5F
:1041C000641BA410A64209D10B4D00260B4C00F035
:1041D0007DF9641BA410A64205D170BD55F8043BBF
:1041E00001369847EEE755F8043B01369847F2E769
:1041F0006C1100206C1100206C1100207011002047
:10420000FEE700BF002383F300887047FDF734BC4E
:10421000EFF30880EFF309812DE9F00F6B4672464A
:10422000FCF782FB08B0FFF7F1FFFEE7FDF724BCC7
:10423000EFF30880EFF309812DE9F00F6B4672462A
:10424000FCF772FB08B0FFF7F1FFFEE7FDF714BCC7
:10425000EFF30880EFF309812DE9F00F6B4672460A
:10426000FCF762FB08B0FFF7F1FFFEE7FDF704BCC7
:10427000EFF30880EFF309812DE9F00F6B467246EA
:10428000FCF752FB08B0FFF7F1FFFEE7FDF7F4BBC8
:10429000EFF30880EFF309812DE9F00F6B467246CA
:1042A000FCF742FB08B0FFF7F1FFFEE770B50446EC
:1042B0003AB141EA040313F003030CD1D518032DDE
:1042C0000FD822F003031C441944002302F0030218
:1042D00093420CD170BD11F8013B013A04F8013B47
:1042E000E6E7CD1A2E68E51A2E60043BE6E75D5C32
:1042F000E5540133ECE7F0B5044662B922F003035C
:10430000234402F003021A44934214D1F0BD04F88E
:10431000011B013AF1E7A307F9D115460B0443EA63
:1043200001630B4343EA01231619032DE6D9771BDA
:104330003B60043DF9E703F8011BE5E708B5EFF33F
:104340000583C3F308030BB1FDF796FBBDE80840F6
:10435000FDF71ABC10B50446EFF30583C3F3080359
:104360000BB1FDF789FB2046BDE81040FDF70FBCFF
:104370002DE9F04104460D4616461F46EFF305832E
:10438000C3F308030BB1FDF777FB3B4632462946E2
:104390002046BDE8F041FCF793BE2DE9F04104460C
:1043A0000D4616461F46EFF30583C3F308030BB112
:1043B000FDF762FB3B46324629462046BDE8F04108
:1043C000FCF7B8BE08B5EFF30583C3F308030BB1E0
:1043D000FDF752FBBDE80840FDF7A9BB0020704780
:1043E000704710B5044608B1FEF70AF82046BDE84C
:1043F0001040FDF7F5BF10B50446406A10B1A16A40
:10440000FFF7EFFF0020C4E9090010BD38B50446EE
:10441000FFF7F1FF236A2C22012B0CBF05466FF03A
:10442000960500212046FFF766FF284638BD00208C
:10443000704770470020704713B5002001AB144649
:10444000FEF792F830B9019BA34218BF6FF09300BA
:1044500002B010BD6FF09200FAE7002070472DE91E
:10446000E04F2746A046A146A246A346A446A2B0D6
:104470002DEC000A84F3008825462646A447EFF376
:10448000148515F0080F18BFB0EE400A3DEC000A85
:1044900022B0BDE8E08F884210B501EB020402D9DA
:1044A0008442234607D8431EA14208D011F8012BAD
:1044B00003F8012FF8E7024401468A4200D110BDFB
:1044C00013F8014D02F8014DF7E70000F8B500BF01
:1044D000F8BC08BC9E467047F8B500BFF8BC08BCE5
:1044E0009E467047FF8FFFFFFF8FFFFFFE8FFFFF8E
:1044F000FE8FFFFFFD8FFFFFFC8FFFFFFC8FFFFF95
:10450000FB8FFFFF4661696C20746F2061637175DA
:10451000697265206D757465780A00004661696C82
:1045200020746F20696E63726561736520504D2041
:10453000636F756E7465720A000000004661696CF5
:1045400020746F20646563726561736520504D202F
:10455000636F756E7465720A000000004661696CD5
:1045600020746F2072656C65617365206D7574656C
:10457000780A0000436F756C64206E6F74206C6F56
:10458000636B20706F7765722073617665206D753F
:10459000746578006D757465785F66726565206313
:1045A000616C6C65642077697468204E554C4C20B2
:1045B000706172616D6574657200000043616E2701
:1045C0007420696E697469616C697A65206D7574AF
:1045D00065782C20776173204E554C4C0D0A0000F5
:1045E0004661696C20746F20756E6C6F636B206D13
:1045F000757465780A0000000A6374782069732076
:104600004E554C4C0A00000067E6096A85AE67BB50
:1046100072F36E3C3AF54FA57F520E518C68059BA4
:10462000ABD9831F19CDE05BD89E05C107D57C3679
:1046300017DD703039590EF7310BC0FF111558686E
:10464000A78FF964A44FFABE0123456789ABCDEF6C
:10465000FEDCBA9876543210F0E1D2C30C1100207F
:1046600054464D5F43525950544F0054464D5F508D
:104670004C4154464F524D5F5345525649434500B5
:10468000000000000000000000000000000000002A
:10469000000000000000000000000000000000001A
:107C00007FE97FE9FAF79CB97FE97FE9FAF7A7B93D
:107C10007FE97FE9FAF7CFB97FE97FE9FAF7C2B9DF
:107C20007FE97FE9FAF7AAB9000000000000000030
:107C30000000000000000000000000000000000044
:107C40007AFFFFFF90ED00E0E011002074110020AA
:107C500054010000E1430000DD430000F742000052
:107C6000A8100020D8100020D0100020CC10002038
:107C7000C8100020DD300000D1300000C530000009
:107C800000000000E930000004110020FC1000207A
:107C9000F410002000000000EC100020053200006D
:107CA0005131000085310000CD310000CC2400208E
:107CB0003A00003AD02400203A00003AD4240020B0
:107CC0003A00003AD82400203A00003A00000000B0
:107CD00000000000000000000000000000000000A4
:107CE0000000000000000000000000000000000094
:107CF0000000000000000000000000000000000084
:107D00000000000000000000000000000000000073
:107D10000000000000000000000000000000000063
:107D200000000000000000000000000035200000FE
:047D30000D20000022
:00000001FF
